:020000040000FA
:100000000C9461010C9489010C9489010C94890170
:100010000C9489010C9489010C9489010C94890138
:100020000C9489010C9489010C9489010C94890128
:100030000C9489010C9489010C9489010C94890118
:100040000C946F120C9489010C943D120C941712AD
:100050000C9489010C9489010C9489010C948901F8
:100060000C9489010C9489010010405010204030FC
:100070002040103030005010401020505010003000
:100080006040301060002040000000002400270085
:100090002A000000FF000011FF000022FF000033D3
:1000A000FF000044FF000055FF000066FF000077DE
:1000B000FF000088FF000099FF0000AAFF0000BBBE
:1000C000FF0000CCFF0000DDFF0000EEFF0000FF9E
:1000D000FF0000FFFF0000FFEE0000FFDD0000FF5B
:1000E000CC0000FFBB0000FFAA0000FF990000FF4A
:1000F000880000FF770000FF660000FF550000FF4A
:10010000440000FF330000FF220000FF110000FF49
:10011000000000FF000011FF000022FF000033FF7D
:10012000000044FF000055FF000066FF000077FF5D
:10013000000088FF000099FF0000AAFF0000BBFF3D
:100140000000CCFF0000DDFF0000EEFF0000FFFF1D
:100150000000FFFF0000FFEE0000FFDD0000FFCC0D
:100160000000FFBB0000FFAA0000FF990000FF880D
:100170000000FF770000FF660000FF550000FF440D
:100180000000FF330000FF220000FF110000FF000D
:100190000000FF000000FF001100FF002200FF0030
:1001A0003300FF004400FF005500FF006600FF0021
:1001B0007700FF008800FF009900FF00AA00FF0001
:1001C000BB00FF00CC00FF00DD00FF00EE00FF00E1
:1001D000FF00FF00FF00EE00FF00DD00FF00CC008D
:1001E000FF00BB00FF00AA00FF009900FF0088008D
:1001F000FF007700FF006600FF005500FF0044008D
:10020000FF003300FF002200FF001100FF0000008C
:10021000FF00FFFFFF00EFEFEF00DFDFDF00CFCFDA
:10022000CF00BFBFBF00AFAFAF009F9F9F008F8FBA
:100230008F007F7F7F006F6F6F005F5F5F004F4FAA
:100240004F003F3F3F002F2F2F001F1F1F000F0F9A
:100250000F0000000000E0E0E0E0E0E0E0E0E0E0CF
:10026000E0E0E0E0E0E0E0E0E0E0E0E0E0E0E0E08E
:10027000E0E0E0E0E0E0E000000008000201000053
:100280000304070000000000000000010204081041
:100290002040800102040810200102040810200000
:1002A000000000250028002B0004040404040404BA
:1002B0000402020202020203030303030300B91251
:1002C0000A1B11241FBECFEFD8E0DEBFCDBF11E067
:1002D000A0E0B1E0E0E1FBE302C005900D92A4379D
:1002E000B107D9F722E0A4E7B1E001C01D92AE3911
:1002F000B207E1F711E0C0E6D1E004C02197FE01AA
:100300000E94491CCF35D107C9F70E945A130C949B
:100310007B1D0C94000090E0FC01E958FD4F2491F6
:10032000FC01E557FD4F3491FC01E755FD4FE49189
:10033000EE23B9F0222339F02330F1F098F4213084
:1003400009F1223019F1F0E0EE0FFF1FE156FD4FE9
:10035000A591B4918FB7F894EC9130953E233C93DE
:100360008FBF08952730A9F02830C9F0243059F7FD
:10037000809180008F7D03C0809180008F77809373
:100380008000E1CF84B58F7784BDDDCF84B58F7DCC
:10039000FBCF8091B0008F778093B000D4CF809155
:1003A000B0008F7DF9CF8F929F92AF92BF92CF9284
:1003B000DF92EF92FF92CF932091860230918702D5
:1003C00082179307E8F54B01AA24BB24C82DC52E3C
:1003D000D62EE72EFF24BC2DA42F20918C022223A1
:1003E00061F0829E40011124C92D2C9D60011124D1
:1003F000BD2D249FF0011124AF2FE0919202E090D7
:100400008D02F0908E0230918F02E31323C09C0185
:10041000220F331F820F931F8E0D9F1DE0918F02BD
:10042000E80FF92FF11DC083E0919002E80FF92F3A
:10043000F11DB08320919102820F911DFC01A083D8
:10044000CF91FF90EF90DF90CF90BF90AF909F90B3
:100450008F900895880F991F880F991F8E0D9F1DEB
:10046000472F552766277727222349F030E0249F1E
:100470007001259FF00C349FF00C11244F2DE80FD4
:10048000F92FF11D4083CACF4F925F926F927F92F6
:100490008F929F92AF92BF92EF92FF92CF93DF9392
:1004A00020918602309187028217930708F0E5C0F9
:1004B0006091920270918F0240918D0250918E0254
:1004C00080908C02262F30E0E0919002F0E0A09125
:1004D0009102B0E0671364C0BC01660F771F860FFE
:1004E000971F480F591F240F351FE9012881E40F7A
:1004F000F51FF080A40FB51FCC91882009F445C0EA
:10050000912CB12CA12C622F70E0762F6627072E3C
:10051000000C880B990BA50194010E94F01B390176
:10052000552444246F2D70E0762F6627072E000C8B
:10053000880B990BA50194010E94F01BB42FA32FE7
:10054000922F8827482A592A6A2A7B2A6C2F70E022
:10055000762F6627072E000C880B990BA5019401B6
:100560000E94F01BC301B201622B732B842B952BCD
:10057000DF91CF91FF90EF90BF90AF909F908F90C1
:100580007F906F905F904F9008956F2D70E090E096
:1005900080E0982F872F762F6627822B6C2BE8CF51
:1005A000880F991F880F991F840F951F280F391FD7
:1005B000E9013881EC01C70FD11DF880E80FF91F60
:1005C000C081A80FB91FEC90882009F44BC0912C72
:1005D000B12CA12C632F70E0762F6627072E000C1C
:1005E000880B990BA50194010E94F01B722E6624C2
:1005F000552444246F2D70E0762F6627072E000CBB
:10060000880B990BA50194010E94F01BA9013327C7
:100610002227422A532A642A752A6E2D70E0762FEB
:100620006627072E000C880B990BA50194010E94E8
:10063000F01B422A532A642A752A6C2F70E0762F09
:100640006627072E000C880B990BA50194010E94C8
:10065000F01B942F832F722F662764297529862912
:10066000972986CF6F2D70E090E080E0CB0177274F
:100670006627932B6E297C2B7BCF60E070E0CB014B
:1006800077CF0895AF92BF92CF92DF92EF92FF9211
:100690000F931F93CF93DF936C017B018B01040FAA
:1006A000151FEB015E01AE18BF08C017D10759F046
:1006B0006991D601ED91FC910190F081E02DC60188
:1006C0000995892B79F7C501DF91CF911F910F9182
:1006D000FF90EF90DF90CF90BF90AF900895FC0116
:1006E000538D448D252F30E0842F90E0821B930B97
:1006F000541710F0CF96089501970895FC01918D3D
:10070000828D981761F0A28DAE0FBF2FB11D5D963F
:100710008C91928D9F5F9F73928F90E008958FEFE1
:100720009FEF0895FC01918D828D981731F0828D95
:10073000E80FF11D858D90E008958FEF9FEF0895EC
:10074000FC01918D228D892F90E0805C9F4F821B50
:1007500091098F739927089587EE91E00E94A00375
:1007600021E0892B09F420E0822F08950C94AC033A
:10077000FC01A48DA80FB92FB11DA35ABF4F2C9116
:10078000848D90E001968F739927848FA689B7890D
:100790002C93A089B1898C91837080648C93938D04
:1007A000848D981306C00288F389E02D80818F7DA7
:1007B00080830895EF92FF920F931F93CF93DF935F
:1007C000EC0181E0888F9B8D8C8D98131AC0E8898D
:1007D000F989808185FF15C09FB7F894EE89FF895C
:1007E0006083E889F98980818370806480839FBFFA
:1007F00081E090E0DF91CF911F910F91FF90EF90FA
:100800000895F62E0B8D10E00F5F1F4F0F73112709
:10081000E02E8C8D8E110CC00FB607FCFACFE88944
:10082000F989808185FFF5CFCE010E94B803F1CF11
:10083000EB8DEC0FFD2FF11DE35AFF4FF0829FB7B8
:10084000F8940B8FEA89FB8980818062CFCFCF93A8
:10085000DF93EC01888D8823B9F0AA89BB89E889E8
:10086000F9898C9185FD03C0808186FD0DC00FB68E
:1008700007FCF7CF8C9185FFF2CF808185FFEDCF0C
:10088000CE010E94B803E9CFDF91CF910895CF93B5
:10089000DF9390E0FC01E557FD4F249187559D4F74
:1008A000FC0184918823D1F090E0880F991FFC010E
:1008B000E857FF4FA591B491FC01E156FD4FC5915A
:1008C000D49161110EC09FB7F8948C91E22FE095FE
:1008D0008E238C932881E223E8839FBFDF91CF9101
:1008E00008958FB7F894EC91E22BEC938FBFF6CF7D
:1008F0003FB7F8948091820190918301A091840187
:10090000B091850126B5A89B05C02F3F19F001962F
:10091000A11DB11D3FBFBA2FA92F982F8827BC0159
:10092000CD01620F711D811D911D42E0660F771F81
:10093000881F991F4A95D1F708950F931F93CF935E
:10094000DF93CDB7DEB729970FB6F894DEBF0FBEA1
:10095000CDBF80918D0290918E02892B09F47CC0CD
:100960000E947804009193021091940220919502C4
:1009700030919602601771078207930740F46093E5
:100980009302709394028093950290939602009143
:100990009302109194022091950230919602601B6F
:1009A000710B820B930B6C32714081059105C0F283
:1009B000F89480918802909189029A838983E091CA
:1009C0008D02F0918E02DF011196808189879091CE
:1009D0008402E0919702F091980280919902992304
:1009E00009F445C09081982B988790818095892340
:1009F0008F838F818C8388E08B8358856F814985B5
:100A00003B812C8189819A81508347FD252F3A951E
:100A10002083262F39F0441F00C0000060830000AF
:100A200000C0F2CF38E04D9160830000019761F77C
:100A3000F0939802E093970249873B832C839A8333
:100A4000898378940E94780460939302709394024F
:100A5000809395029093960229960FB6F894DEBF84
:100A60000FBECDBFDF91CF911F910F91089590815F
:100A7000982B98879081809589238F838F818E838F
:100A800088E08D8358856F8149853D812E818981DC
:100A90009A81508347FD252F00C000C0208300C0ED
:100AA00000C000C000C000C060830000262F3A953F
:100AB00041F0441F000000C000C000C000C000C0E2
:100AC000E8CF38E04D9100C0608300C0019709F77E
:100AD000F0939802E093970249873D832E83AFCF2E
:100AE0008F929F92AF92BF92CF92DF92EF92FF923E
:100AF0006B017C010E9478044B015C01C114D1049C
:100B0000E104F104B9F00E947804681979098A09AE
:100B10009B09683E73408105910580F321E0C21A6C
:100B2000D108E108F10888EE880E83E0981EA11C28
:100B3000B11CE4CFFF90EF90DF90CF90BF90AF90CB
:100B40009F908F900895489FF0011124479F900136
:100B50001124469FB0011124779FB0011124339FC7
:100B6000A0011124FF9F90011124672F752F832F5F
:100B7000089550913801589FF0011124579F90011A
:100B80001124569FB0011124672F732F8F2F0895C2
:100B90000F931F9394E0899FF0011124E859FF4FB0
:100BA000459155916591749184E0489FF00111241D
:100BB000EE56FF4F0591159125913491A4E0B1E0D7
:100BC0000D931D932D933C93139794E0599FF0013F
:100BD0001124EE56FF4F05911591259134911496ED
:100BE0000D931D932D933C93179784E0689FF0011C
:100BF0001124EE56FF4F05911591259134911896C9
:100C00000D931D932D933C931B9794E0799FF001D6
:100C10001124EE56FF4F45915591659174911C96A4
:100C20004D935D936D937C931F971F910F91089542
:100C30008091DA01883EF8F4282F30E093E0359572
:100C400027959A95E1F720933601877080933501B7
:100C50008091DB01809339019091DC019093380100
:100C60009091DD0190933701E0913601F0E0EB5E69
:100C7000FE4F808308959DE190933601885EE6CF14
:100C8000282F2095253598F4822F880F880F622F02
:100C9000681B9FEF960F692F70E090E080E0CB011A
:100CA00077276627322F330F230F622B08952A3AB6
:100CB00088F42555622F660F620F70E090E080E0A7
:100CC000982F872F762F6627322F330F330F231B52
:100CD0002150EBCF2A5A822F880F880F322F381BD2
:100CE0003150622F660F620F70E090E080E0CB0120
:100CF00077276627732B0895EF92FF920F931F9328
:100D0000CF93DF93D0E0C0E0EE24EA94F12C10E022
:100D100000E0809186029091870208171907A0F4DD
:100D20008091C401800F912F911DB7010E94351C45
:100D30000E944006AB01BC01CE01800F911F0E94B2
:100D4000D3010D5F1F4FE5CF0E949D0460913901D3
:100D500070E090E080E00E94700510E000E080917B
:100D60008602909187020817190758F440E050E076
:100D7000BA01CE01800F911F0E94D3010D5F1F4F5A
:100D8000EECF2196C330D10511F6DF91CF911F919F
:100D90000F91FF90EF9008950F931F93CF93DF93E0
:100DA00010E000E0D0E0C0E0609186027091870220
:100DB000C617D70780F4C8010E94211C8091C40186
:100DC000860F0E944006AB01BC01CE010E94D301F8
:100DD00021961395E9CF0E949D046091390170E03E
:100DE00090E080E0DF91CF911F910F910C947005FE
:100DF0001F93CF93DF93182FD0E0C0E04FEF5FEF4A
:100E00006FEF70E0CE010E94D3012196C331D1056E
:100E1000A9F70E949D04612F70E090E080E00E949D
:100E20007005D0E0C0E040E050E0BA01CE010E9481
:100E3000D3012196C331D105B1F7DF91CF911F9135
:100E40000C949D04CF92DF92EF92FF920F931F9329
:100E5000282F00E6809FC001112465E070E00E9409
:100E6000351CFB01EE0FFF1FEE0FFF1FEE56FF4F6D
:100E7000C590D590E590F490E22FF0E0EE0FFF1FC3
:100E8000EA53FE4F81819081890F9927991F4091E4
:100E90003801489F9001499F300D1124432FB6011E
:100EA000C7010E94A305962F472F50E070E060E035
:100EB000762F652F542F4427682B8A019B01092B1D
:100EC000C901B8011F910F91FF90EF90DF90CF9073
:100ED0000895CF93DF93CBE0D0E0CE010E9444028F
:100EE000AB01BC01CE0101970E94D3012196C43110
:100EF000D10599F7C8E0D0E0CE010E944402AB01D1
:100F0000BC01CE0101960E94D3012197A8F7DF9181
:100F1000CF9108950F931F93CF93DF93D0E0C0E05C
:100F20008E010F5F1F4FC8010E944402AB01BC013C
:100F3000CE010E94D301E8010A30110589F7C2E110
:100F4000D0E0CE010E944402AB01BC01CE0101966B
:100F50000E94D3012197C930D10599F7DF91CF9134
:100F60001F910F9108950F931F93E82FF0E0DF0179
:100F7000AA53BE4F2C9190913801299F90011124C2
:100F8000532FE157FE4F90819F3078F510824081BA
:100F9000451710F43083432F00E6809FC0011124D1
:100FA0006AE070E00E94351CFB01EE0FFF1FEE0FA0
:100FB000FF1FEE56FF4F0591159125913491B80111
:100FC000C9010E94A305962F472F50E070E060E012
:100FD000762F652F542F4427682B8A019B01092BFC
:100FE000C901B8011F910F9108959F509083CFCFF1
:100FF000CF93DF93C2E1D0E0CE010E944402AB0167
:10100000BC01CE0101960E94D3012197A8F7C0919F
:101010007801C1111CC0609104017091050180919B
:101020000601909107010E94B905AB01BC0190E057
:1010300080E00E94D3010E949D048091C4018F5FD3
:101040008A3070F48093C401DF91CF91089560914C
:1010500008017091090180910A0190910B01E3CF81
:101060001092C40181E0C11180E080937801ECCF3F
:10107000CF93DF93D0917801D1111CC0609104010E
:101080007091050180910601909107010E94B905B8
:10109000C091C401AB01BC018C2F90E00E94D30130
:1010A0000E949D04CF5FC43170F4C093C401DF91EE
:1010B000CF910895609108017091090180910A0112
:1010C00090910B01E3CF1092C40181E0D11180E037
:1010D00080937801ECCFCF93DF93C2E1D0E0CE01D3
:1010E0000E944402AB01BC01CE0101960E94D301D3
:1010F0002197A8F7C091C401C231D0F060910401DA
:101100007091050180910601909107010E94B90537
:10111000AB01BC0190E080E00E94D3010E949D04DD
:10112000CF5FC43170F4C093C401DF91CF910895B3
:10113000609108017091090180910A0190910B0161
:10114000E5CF1092C401F1CFCF93DF93C2E1D0E09D
:10115000CE010E944402AB01BC01CE0101960E9467
:10116000D3012197A8F7C091C401C031D0F060919C
:1011700004017091050180910601909107010E9480
:10118000B905AB01BC0190E080E00E94D3010E9450
:101190009D04CF5FC43170F4C093C401DF91CF913F
:1011A0000895609108017091090180910A01909160
:1011B0000B01E5CF1092C401F1CFBF92CF92DF9225
:1011C000EF92FF920F931F93CF93DF9390E0E92E5E
:1011D00091E0F92E04E711E0D0E0C0E023E1C22E57
:1011E000D12CBC2EF701808181508083811122C0D7
:1011F000FE01EC5BFE4F8081F7018083F801808166
:101200008F5F843188F58083FE01EE0FFF1FEE0FA4
:10121000FF1FEC5FFE4F60817181828193810E948C
:10122000B905AB01BC01F801808190E0B0FC1EC0A3
:101230000E94D30121963FEFE31AF30A0F5F1F4F7D
:10124000C430D10571F60E949D048091C4018F5F66
:101250008093C401DF91CF911F910F91FF90EF9088
:10126000DF90CF90BF9008951082CECF9601281BBB
:10127000390BC901DDCF90E4899FF0011124EE56AE
:10128000FF4F65917591859194910895CF938091C9
:101290007C01C1E0C80FC0937C010E943B096093B0
:1012A0000401709305018093060190930701C730F4
:1012B00010F010927C01CF910895CF92DF92FF92AF
:1012C0000F931F93CF93DF93F090040100910501DA
:1012D00010910601D091070182E1C82ED12CC601E0
:1012E0000E944402AB01BC01C60101960E94D301D9
:1012F00081E0C81AD10898F7C091C401C83030F510
:10130000C230F8F460918601709187018091880164
:10131000909189010E94B905AB01BC0190E080E089
:101320000E94D3010E949D04CF5FC131D0F4C093CD
:10133000C401DF91CF911F910F91FF90DF90CF906B
:1013400008956F2D702F812F9D2FE4CFCA30D0F2DA
:1013500060918B0170918C0180918D0190918E0133
:10136000D9CF1092C40180913501873011F7DF91F8
:10137000CF911F910F91FF90DF90CF900C94460971
:10138000CF92DF92EF92FF92CF93DF93C090040150
:10139000D0900501E0900601F0900701C2E1D0E095
:1013A000CE010E944402AB01BC01CE0101960E9415
:1013B000D3012197A8F7C091C401C430C0F4C7017C
:1013C000B6010E94B905AB01BC0190E080E00E942B
:1013D000D3010E949D04CF5FC83090F4C093C40134
:1013E000DF91CF91FF90EF90DF90CF9008954091E3
:1013F0008B0150918C0160918D0170918E01E5CF30
:101400001092C40180913501873051F7DF91CF915F
:10141000FF90EF90DF90CF900C944609EF92FF92EF
:101420000F931F93CF93DF93C09104011091050197
:101430000091060162E1E62EF12CC7010E944402F0
:10144000AB01BC01C70101960E94D30181E0E81AFB
:10145000F10898F7D091C401DA3008F082C0D23098
:1014600008F051C0D1112EC0602F70E075956795BE
:1014700075956795072E000C880B990BCB01772784
:101480006627012F10E01595079515950795012EF4
:10149000000C220B330B322F212F102F0027602B33
:1014A000712B822B932B0C2F10E01595079515951A
:1014B0000795012E000C220B330B602B712B822B16
:1014C000932B0AC0612F70E090E080E0982F872F67
:1014D000762F6627802B6C2B0E94B905AB01BC01CF
:1014E00090E080E00E94D3010E949D04DF5FD8312C
:1014F00008F040C0D093C401DF91CF911F910F91AC
:10150000FF90EF900895602F70E08D2F8250990B1F
:10151000AC0102C0759567958A95E2F7072E000C1D
:10152000880B990BCB0177276627012F10E0042E3B
:1015300002C0159507950A94E2F7012E000C220BC4
:10154000330B322F212F102F0027602B712B822B72
:10155000932B0C2F10E002C0159507954A95E2F7E2
:10156000A8CF60918B0170918C0180918D01909139
:101570008E01B2CF1092C40180913501873009F0FD
:10158000BBCFDF91CF911F910F91FF90EF900C9403
:101590004609CF92DF92EF92FF92CF93DF93E090D4
:1015A0000401F0900501C0900601C2E1D0E0CE0137
:1015B0000E944402AB01BC01CE0101960E94D301FE
:1015C0002197A8F7C091C4012E2D30E06C2F70E058
:1015D0008F2D90E0D12CCA3008F044C00C2E02C0F0
:1015E000D594C7940A94E2F70D2C000CEE08FF087E
:1015F0007601DD24CC24BC010C2E02C075956795C4
:101600000A94E2F7072E000C880B990B982F872F6E
:10161000762F6627C62AD72AE82AF92A0C2E02C076
:10162000359527950A94E2F7B901330F880B990B8A
:101630006C297D298E299F290E94B905AB01BC0127
:1016400090E080E00E94D3010E949D04CF5FC431EE
:1016500040F5C093C401DF91CF91FF90EF90DF90F0
:10166000CF90089543E150E0461B570B042E02C073
:10167000D594C7940A94E2F7042E02C095958795F5
:101680000A94E2F790E0B0E0A0E06627782F892F77
:101690009A2F8C2902C0359527954A95E2F7622B3F
:1016A000CBCF1092C401809135018730A1F6DF9134
:1016B000CF91FF90EF90DF90CF900C944609CF929E
:1016C000DF92EF92FF92CF93DF93C8E0D0E0CE019C
:1016D0000E944402AB01BC01CE0101960E94D301DD
:1016E0002197A8F7CBE0D0E0CE010E944402AB01E5
:1016F000BC01CE0101970E94D3012196C431D105CE
:1017000099F7C091C401C1111BC080917C018F5F0A
:10171000873020F580937C0180917C010E943B09F9
:101720000E94B9056B017C01BC01A60190E080E03C
:101730000E94D301B701A60183E190E00E94D3018A
:101740000E949D04CF5FC93060F4C093C401DF9153
:10175000CF91FF90EF90DF90CF90089510927C0191
:10176000DBCF1092C401F3CFCF93DF93C2E1D0E07F
:10177000CE010E944402AB01BC01CE0101960E9441
:10178000D3012197A8F7C091C401C11113C0809162
:101790007C018F5F8730C0F480937C0180917C0155
:1017A0000E943B090E94B905AB01BC0190E080E0BA
:1017B0000E94D3010E949D04CF5FC93040F4C093C2
:1017C000C401DF91CF91089510927C01E7CF109270
:1017D000C401F7CF4F925F926F927F928F929F9248
:1017E000AF92BF92CF92DF92EF92FF920F931F932F
:1017F000CF93DF9360910401709105018091060100
:10180000909107010E94B9052B013C0160910801EC
:101810007091090180910A0190910B010E94B90514
:101820004B015C01D0E0C091C40184E0C89F60011D
:1018300011248D2F90E08C159D0534F4B501A40181
:101840000E94D301DF5FEFCF0C2F000F000F10E0DD
:10185000043140F4B301A201C8010E94D3010F5F1B
:101860001F4FF6CFD0918A011D2FED2EF12C83E072
:10187000E80EF11C812F90E0E816F90634F0B5016E
:10188000A4010E94D3011F5FF5CF0E949D04D15097
:10189000D0938A01DC151D0441F4CF5FC530B0F44C
:1018A000C093C40183E180938A01DF91CF911F919E
:1018B0000F91FF90EF90DF90CF90BF90AF909F90EF
:1018C0008F907F906F905F904F9008951092C40119
:1018D0008091040190910501A0910601B09107014A
:1018E000409108015091090160910A0170910B012A
:1018F0004093040150930501609306017093070122
:10190000209135012730B1F480917C01C1E0C80FEE
:10191000C0937C010E943B09609308017093090108
:1019200080930A0190930B01C73008F4BBCF10924B
:101930007C01B8CF8093080190930901A0930A011C
:10194000B0930B01AFCF4F925F926F927F928F92C5
:101950009F92AF92BF92CF92DF92EF92FF920F933E
:101960001F93CF93DF9360910401709105018091E3
:101970000601909107010E94B9054B015C0160913D
:1019800008017091090180910A0190910B010E9458
:10199000B9056B017C01C0E05090C401252D30E0F9
:1019A0008901000F111F000F111F8C2F90E080176D
:1019B000910734F4B701A6010E94D301CF5FECCFA9
:1019C000C5E0D0E03E01621A730AC62DCC0FCC0FE1
:1019D000D0E0C43138F4B701A601CE010E94D30192
:1019E0002196F7CF452C440C440C660C771C660CF2
:1019F000771C842D90E08615970534F4B501A40179
:101A00000E94D3014394F5CF90908A01892CA92C90
:101A1000B12CE5012396882D90E0C817D90734F042
:101A2000B701A6010E94D3018394F5CF80E1882EEF
:101A30008918C4E1D0E0CA19DB09882D90E08C1721
:101A40009D0734F4B701A6010E94D3018394F5CF1A
:101A50000E949D049A9490928A019016110649F46E
:101A600081E0850D8230B0F48093C40183E18093DE
:101A70008A01DF91CF911F910F91FF90EF90DF903E
:101A8000CF90BF90AF909F908F907F906F905F901E
:101A90004F9008951092C401809104019091050126
:101AA000A0910601B09107014091080150910901F0
:101AB00060910A0170910B0140930401509305015C
:101AC0006093060170930701209135012730B1F42E
:101AD00080917C01C1E0C80FC0937C010E943B094A
:101AE000609308017093090180930A0190930B01A0
:101AF000C73008F4BBCF10927C01B8CF80930801A7
:101B000090930901A0930A01B0930B01AFCFCF923C
:101B1000DF92FF920F931F93CF93DF93C091040145
:101B200000910501F090060182E1C82ED12CC6017A
:101B30000E944402AB01BC01C60101960E94D30180
:101B400061E0C61AD10898F710917801D091C401CC
:101B50008D2F880F8D0F112339F026E230E02D1BD9
:101B60003109822F880F820F880F90E02F2D30E0EF
:101B7000281B390B37FF02C030E020E0229FA00174
:101B8000239F500D500D1124202F30E0281B390BBE
:101B900037FF02C030E020E0229FF001239FF00DCC
:101BA000F00D11242C2F30E0B901681B790BCB010B
:101BB00077FF02C090E080E0889F9001899F300D00
:101BC000300D1124632F7F2F852F90E00E94B905DF
:101BD000AB01BC0190E080E00E94D3010E949D0413
:101BE000DF5FD73250F4D093C401DF91CF911F91C2
:101BF0000F91FF90DF90CF9008951092C40181E083
:101C0000111180E08093780180913501873069F768
:101C10001111EBCFC0917C018C2F0E943B09609386
:101C20000401709305018093060190930701CF5F33
:101C3000C73018F4C0937C01D8CF10927C01D5CF67
:101C4000CF92DF92EF92FF92CF93DF93C8E0D0E084
:101C5000CE010E944402AB01BC01CE0101960E945C
:101C6000D3012197A8F7CBE0D0E0CE010E94440237
:101C7000AB01BC01CE0101970E94D3012196C53171
:101C8000D10599F78091C401811138C00E94661B6B
:101C900020E630E040E050E00E94BE1BFB01EE0F6A
:101CA000FF1FEE0FFF1FEE56FF4F65917591859157
:101CB00094910E94B9056B017C01B701A60190E0E7
:101CC00080E00E94D301B701A60183E190E00E9469
:101CD000D3010E949D048091C4018F5F2091350142
:101CE0002250330B8217130694F48093C401DF91C2
:101CF000CF91FF90EF90DF90CF900895C0908B012F
:101D0000D0908C01E0908D01F0908E01D6CF109292
:101D1000C401EDCF2F923F924F925F926F927F92CC
:101D20008F929F92AF92BF92CF92DF92EF92FF92EB
:101D30000F931F93CF93DF93C0908B01D0908C01B2
:101D4000E0908D01F0908E0180917B01B701A6019A
:101D500090E00E94D30180917A01B701A60190E042
:101D60000E94D30180917901813808F019C18F5FF9
:101D70008093790180917901813608F4CAC00E946C
:101D8000661B30E6C32ED12CE12CF12CA701960165
:101D90000E94BE1BFB01EE0FFF1FEE0FFF1FEE5652
:101DA000FF4F85909590A590B490CA2DD0E0D59521
:101DB000C795D595C795292C312C35942794359402
:101DC0002794082D10E015950795159507950E9405
:101DD000661BE4E14E2E512C612C712CA301920163
:101DE0000E94BE1BCB01402F522D6C2F7B2D0E94D9
:101DF000D3010E94661BA70196010E94BE1BFB0136
:101E0000EE0FFF1FEE0FFF1FEE56FF4F85909590D0
:101E1000A590B4900A2D10E0159507951595079596
:101E2000292C312C3594279435942794C82DD0E053
:101E3000D595C795D595C7950E94661BA3019201BC
:101E40000E94BE1BCB014C2F522D602F7B2D0E9478
:101E5000D3010E94661BA70196010E94BE1BFB01D5
:101E6000EE0FFF1FEE0FFF1FEE56FF4F8590959070
:101E7000A590B4900A2D10E0159507951595079536
:101E8000292C312C3594279435942794C82DD0E0F3
:101E9000D595C795D595C7950E94661BA30192015C
:101EA0000E94BE1BCB014C2F522D602F7B2D0E9418
:101EB000D3010E94661BA70196010E94BE1BFB0175
:101EC000EE0FFF1FEE0FFF1FEE56FF4F8590959010
:101ED000A590B490CA2DD0E0D595C795D595C79556
:101EE000092D10E01595079515950795E82CF12C0F
:101EF000F594E794F594E7940E94661BA301920180
:101F00000E94BE1BCB014E2D502F6C2F7B2D0E94AB
:101F1000D3010E94661B24E1C22ED12CE12CF12CAE
:101F2000A70196010E94BE1B862F60937B01409102
:101F3000860150918701609188017091890190E03C
:101F40000E94D3010E94661BA70196010E94BE1B3E
:101F5000862F60937A0140918601509187016091AC
:101F600088017091890190E00E94D3010E949D0434
:101F700062E370E080E090E0DF91CF911F910F91DC
:101F8000FF90EF90DF90CF90BF90AF909F908F9099
:101F90007F906F905F904F903F902F900C947005C2
:101FA00010927901E7CE0F931F930E94661B20E6E3
:101FB00030E040E050E00E94BE1BFB01EE0FFF1F2F
:101FC000EE0FFF1FEE56FF4F0591159125913491AD
:101FD000622F70E07595679575956795E12FF0E034
:101FE000F595E795F595E795402F50E05595479580
:101FF0005595479580917B015E2F732F90E00E944D
:10200000D3010E94661B24E130E040E050E00E94D2
:10201000BE1B862F60937B01409186015091870102
:10202000609188017091890190E00E94D3010E9423
:102030009D0462E370E080E090E01F910F910C94AA
:1020400070052F923F924F925F926F927F928F9284
:102050009F92AF92BF92CF92DF92EF92FF920F9337
:102060001F93CF93DF93C0908B01D0908C01E090B1
:102070008D01F0908E0180917B01B701A60190E067
:102080000E94D30180917A01B701A60190E00E94DD
:10209000D3010E94661B20E6422E512C612C712C2C
:1020A000A30192010E94BE1BFB01EE0FFF1FEE0F6A
:1020B000FF1FEE56FF4FC590D590E590F490CE2DC2
:1020C000D0E0D595C795D595C7950D2D10E0159500
:1020D0000795159507952C2C312C3594279435941C
:1020E00027940E94661BE4E18E2E912CA12CB12C2A
:1020F000A50194010E94BE1BCB01422D502F6C2FD5
:102100007F2D0E94D3010E94661BA30192010E94B1
:10211000BE1BFB01EE0FFF1FEE0FFF1FEE56FF4F22
:102120004590559065907490C62DD0E0D595C79593
:10213000D595C795052D10E015950795159507952B
:10214000E42CF12CF594E794F594E7940E94661B37
:10215000A50194010E94BE1BCB014E2D502F6C2F68
:10216000772D0E94D3010E94661BA50194010E9455
:10217000BE1B862F60937B014091860150918701A1
:10218000609188017091890190E00E94D3010E94C2
:10219000661BA50194010E94BE1B862F60937A01E5
:1021A0004091860150918701609188017091890169
:1021B00090E00E94D3010E949D0462E370E080E001
:1021C00090E0DF91CF911F910F91FF90EF90DF9002
:1021D000CF90BF90AF909F908F907F906F905F90C7
:1021E0004F903F902F900C9470058F929F92AF92DA
:1021F000BF92CF92DF92EF92FF920E94661B23E183
:10220000822E912CA12CB12CA50194010E94BE1B01
:1022100060937B010E94661B30E6C32ED12CE12C1B
:10222000F12CA70196010E94BE1BFB01EE0FFF1FC0
:10223000EE0FFF1FEE56FF4F45915591659174913A
:1022400080917B0190E00E94D3010E94661BA50152
:1022500094010E94BE1B60937A010E94661BA70135
:1022600096010E94BE1BFB01EE0FFF1FEE0FFF1F2A
:10227000EE56FF4F4591559165917491E0907A012A
:10228000F12CC7010E94D3010E949D046AE070E016
:1022900080E090E00E94700580908B0190908C010E
:1022A000A0908D01B0908E0180917B01B501A401B9
:1022B00090E00E94D301B501A401C7010E94D3019F
:1022C0000E949D046091390170E090E080E0FF90F1
:1022D000EF90DF90CF90BF90AF909F908F900C9435
:1022E0007005CF92DF92EF92FF92CF93DF930E941F
:1022F000661B23E1C22ED12CE12CF12CA701960103
:102300000E94BE1B862F60937B01409186015091F5
:102310008701609188017091890190E00E94D3014A
:102320000E94661BA70196010E94BE1B60937A0162
:10233000C62FD0E0409186015091870160918801BD
:1023400070918901CE010E94D3010E949D046AE030
:1023500070E080E090E00E947005C0908B01D0900A
:102360008C01E0908D01F0908E0180917B01B7018E
:10237000A60190E00E94D301B701A601CE010E9400
:10238000D3010E949D046091390170E090E080E0EB
:10239000DF91CF91FF90EF90DF90CF900C9470057C
:1023A000CF93DF93C2E1D0E0CE010E944402AB01A3
:1023B000BC01CE0101960E94D3012197A8F780911C
:1023C000C40181112BC00E94661B20E630E040E072
:1023D00050E00E94BE1BFB01EE0FFF1FEE0FFF1F20
:1023E000EE56FF4F65917591859194910E94B905C4
:1023F000AB01BC0190E080E00E94D3010E949D04EB
:102400008091C4018F5F8093C4019091350198172A
:1024100010F41092C401DF91CF91089540918B0187
:1024200050918C0160918D0170918E01E3CF1F92CC
:102430000F920FB60F9211242F933F934F935F93F8
:102440006F937F938F939F93AF93BF93EF93FF937C
:1024500087EE91E00E94B803FF91EF91BF91AF9199
:102460009F918F917F916F915F914F913F912F91AC
:102470000F900FBE0F901F9018951F920F920FB6DE
:102480000F9211242F938F939F93EF93FF93E091DB
:10249000F701F091F8018081E091FD01F091FE01DA
:1024A00082FD1BC09081809100028F5F8F7320910D
:1024B0000102821741F0E0910002F0E0E951FE4F85
:1024C000958F80930002FF91EF919F918F912F91B3
:1024D0000F900FBE0F901F9018958081F4CF1F9220
:1024E0000F920FB60F9211242F933F938F939F93C8
:1024F000AF93BF9380917E0190917F01A091800165
:10250000B091810130917D0123E0230F2D3758F5E3
:102510000196A11DB11D20937D0180937E019093B2
:102520007F01A0938001B0938101809182019091FD
:102530008301A0918401B09185010196A11DB11D77
:102540008093820190938301A0938401B0938501CD
:10255000BF91AF919F918F913F912F910F900FBE9F
:102560000F901F90189526E8230F0296A11DB11D0C
:10257000D2CF1092EA011092E90188EE93E0A0E038
:10258000B0E08093EB019093EC01A093ED01B09348
:10259000EE0180E691E09093E8018093E70185ECFD
:1025A00090E09093F4018093F30184EC90E0909399
:1025B000F6018093F50180EC90E09093F801809310
:1025C000F70181EC90E09093FA018093F90182EC9D
:1025D00090E09093FC018093FB0186EC90E0909357
:1025E000FE018093FD0110920002109201021092F0
:1025F0000202109203021092850210928C02109235
:10260000930210929402109295021092960281E029
:102610008093920280938F021092900282E08093C6
:102620009102109284028CE390E09093890280934F
:1026300088020E944F1C90938E0280938D02009717
:1026400081F12CE3FC0111922A95E9F784E190E0F5
:10265000909387028093860285E090E090938B02AE
:1026600080938A0280918502882339F061E085E0B9
:102670000E94470485E00E948B01EEEAF2E0E491BB
:10268000F0E0EE0FFF1FE156FD4F8591949190937E
:10269000980280939702E0E9F2E0E491E0939902D6
:1026A0000895109289021092880210928702109267
:1026B0008602D2CFCF93DF9300D000D000D01F92FC
:1026C000CDB7DEB7789484B5826084BD84B581606F
:1026D00084BD85B5826085BD85B5816085BD8091ED
:1026E0006E00816080936E00109281008091810065
:1026F000826080938100809181008160809381005D
:10270000809180008160809380008091B10084601E
:102710008093B1008091B00081608093B00080917F
:102720007A00846080937A0080917A00826080933E
:102730007A0080917A00816080937A0080917A009B
:10274000806880937A001092C10080918A029091F3
:102750008B0297FD07C061E00E94470480918A02C6
:102760000E948B0181E0809385020E949D048FEF7F
:102770009FEFAFEFB0E08093860190938701A09325
:102780008801B093890110928B0110928C011092F4
:102790008D0110928E01E091F701F091F80182E035
:1027A0008083E091F301F091F4011082E091F50152
:1027B000F091F60180E180831092FF01E091FB012E
:1027C000F091FC0186E08083E091F901F091FA013B
:1027D000808180618083E091F901F091FA0180812C
:1027E00088608083E091F901F091FA01808180682E
:1027F0008083E091F901F091FA0180818F7D8083DF
:1028000061E086E00E9447045AE0252E312C809139
:10281000E601882309F426C61092E6018091DA01C8
:10282000883E08F0EEC00E941806209139012F83DF
:102830001092C40110928A01109136013091350135
:102840003D83113009F052C0363030F4333008F493
:1028500044C00E94200E07C06D81663009F440C05C
:10286000673009F440C042E050E06EE671E087EE68
:1028700091E00E94420342E050E061E771E087EEA0
:1028800091E00E94420387EE91E00E94A003892B11
:1028900009F4BDC687EE91E00E947E038D3F09F4E6
:1028A000B3C6E091C30191E09E0F9093C301F0E0A5
:1028B000ED55FE4F80838E3F31F720E0822F90E070
:1028C000FC01ED55FE4F3081FC01EA53FE4F308391
:1028D0003E3F09F493C62F5FF1CF0E94D011C3CFC2
:1028E0000E94B40BC0CF0E945F0BBDCF8D810E94B0
:1028F000C8051F3008F0B7CFE12FF0E0EE57FB4ED0
:102900000C94491C91143314D014D314D614D91434
:10291000DC14DF14E214E514E814EB14F114F714DA
:10292000FD147D81783008F09ECFE72FF0E0E5566A
:10293000FB4E0C94491CA314A614A914B814C71474
:10294000CA14CD14CD140E947C068DCF0E94CC06F3
:102950008ACF409188025091890270E060E08091B6
:102960008D0290918E020E94741D0E9471117BCF86
:10297000409188025091890270E060E080918D0260
:1029800090918E020E94741D0E94F5106CCF0E94DF
:10299000211069CF0E94D30F66CF0E948A0E63CFA9
:1029A0000E945D0960CF0E94C0095DCF0E940E0A9F
:1029B0005ACF0E94C90A57CF0E94F80754CF0E94ED
:1029C000380851CF0E946B084ECF0E94A4084BCF0D
:1029D0000E94DD0848CF83E180938A010E94EA0BC0
:1029E00042CF83E180938A010E94A30C3CCF83E114
:1029F00080938A010E94870D36CF8F810E94F8064E
:102A000032CF8F3F09F410C50E941806E0913501BE
:102A1000E53108F028CFF0E0E05FFA4E0C94491C55
:102A20002515451561158215A515EF153216671682
:102A3000F11619174B17CB176D18A018D518731965
:102A40003314331433143314BC191E821D8210E066
:102A5000812F0E94B3076B017C01BC01A6018D810F
:102A60009E810E94D301B701A6018D819E810196AE
:102A70000E94D3011F5F8D819E8102969E838D836C
:102A80001A3031F70E949D04EECE1E821D828D8188
:102A90000E94B3076B017C01BC01A6018D819E8160
:102AA0000E94D301B701A6018D819E810A960E94E2
:102AB000D301AD81BE811196BE83AD831A9739F7DC
:102AC000E1CF1E821D828D810E94B3076B017C01C4
:102AD000BC01A6018D819E810E94D301B701A60190
:102AE00083E190E0ED81FE818E1B9F0B0E94D3015C
:102AF0002D813E812F5F3F4F3E832D832A3031054C
:102B000009F2E1CF6AE070E07E836D838D818A50A7
:102B10000E94B3076B017C01BC01A6018D819E81DF
:102B20000E94D301B701A60183E190E0AD81BE818F
:102B30008A1B9B0B0E94D301ED81FE813196FE839F
:102B4000ED83749709F49ECFE1CF0E948A0720910C
:102B5000C601E7ECF1E080E091E03191231710F439
:102B6000232F892F9F5F9A30C1F7E82FF0E0EA53B7
:102B7000FE4F90819C3008F1F0E68F9FC001112438
:102B8000B1010E94351CFB01EE0FFF1FEE0FFF1F6E
:102B9000EE56FF4F0591159125913491B801C90169
:102BA0000E94B905C72ED12CF12CE12CFE2CED2C66
:102BB000DC2CCC24E82AC62A05C040E2C42EDC2C3A
:102BC000EC2CF12CB701A6018AE090E00E94D30121
:102BD000B701A60189E090E00E94D30153CF0E9483
:102BE00069072091C601E7ECF1E080E091E03191C6
:102BF000231710F4232F892F9F5F9A30C1F7E82FF6
:102C0000F0E0EA53FE4F90819C3008F43EC120E68C
:102C1000829FC0011124B1010E94351CFB01EE0FFF
:102C2000FF1FEE0FFF1FEE56FF4F059115912591E7
:102C30003491B801C9010E94B905C72ED12CF12CDD
:102C4000E12CFE2CED2CDC2CCC24E82AC62AB70182
:102C5000A60190E080E00E94D301B701A60183E1C4
:102C600090E0BACF1E821D8210E0812F0E94B30730
:102C70006B017C01BC01A6018D819E810E94D30164
:102C8000B701A6018D819E8101960E94D3011F5F2D
:102C90006D817E816E5F7F4F7E836D831A3029F751
:102CA0008091C6018F3F09F0EDCE1E821D824FEF4D
:102CB0005FEF6FEF70E08D819E810E94D3018D8167
:102CC0009E8101969E838D830A9789F7DBCE26EC41
:102CD000A22E21E0B22E3FE8E32E31E0F32EFE8259
:102CE000ED8210E000E0D12CC12CF50181915F0153
:102CF00029813A81280F311D3A8329839091380127
:102D0000899FC0011124292FAD81BE813C913F30A4
:102D100008F062C01C92AD81BE814C91421738F41C
:102D2000809114019C938F5F80931401492FC601F9
:102D3000B1010E94351CFB01EE0FFF1FEE0FFF1FBC
:102D4000EE56FF4F4590559065907490B201C301C7
:102D50000E94A305472E512C712C612C762C652CDA
:102D6000542C4424682A462AB301A201C8010E94B7
:102D7000D301B301A201C80101960E94D301809141
:102D800014018F3038F4ED81FE8180818A3F10F488
:102D90008B5F80832D813E812F5F3F4F3E832D834C
:102DA00030E6C30ED11C0E5F1F4F0431110509F030
:102DB0009CCF69817A816D3D754008F463CE8FEFB9
:102DC000D7018D937D01E9E9F1E0EA17FB07C1F72F
:102DD00081E08093140156CE3F50ED81FE81308317
:102DE0009ACF0E948A0706EC11E0EFE8F1E040E09C
:102DF00020E0D8013D918D018191632F681B770BF5
:102E0000CB011816190624F4431710F4432F2C8312
:102E1000BF0161507109DB013C932F5F2A3049F7F4
:102E2000463008F4CACEEC81B0E6EB9FC001112415
:102E3000A7CE0E94690706EC11E0EFE8F1E040E060
:102E400020E0D8013D918D018191632F681B770BA4
:102E5000CB011816190624F4431710F4432F2B83C3
:102E6000BF0161507109DB013C932F5F2A3049F7A4
:102E7000BB81EB2FF0E0EA53FE4F8081863028F0D3
:102E8000E0E6BE9FC0011124C6CEF0E2CF2EDC2CBE
:102E9000EC2CF12CDCCE06EC11E0F80190E080E0A7
:102EA0002191820F911D20ED31E02E173F07C1F7D0
:102EB000B1010E94211C58E4C52E51E0D52EEFE847
:102EC000EE2EE1E0FE2EF7012AEFD6014D916D01C5
:102ED000D8013D918D01469FC001479F900D11245F
:102EE000880F892F881F990B9195831708F04CC084
:102EF0002083319682E591E08C159D0531F70AE03B
:102F000010E01E821D82D7012D917D013091380184
:102F1000239F900111248D819E81B1010E94351C57
:102F2000FB01EE0FFF1FEE0FFF1FEE56FF4F8590C8
:102F30009590A590B490432FB401C5010E94A305BC
:102F4000872E912CB12CA12CBA2CA92C982C88243A
:102F5000A82A862AB501A401C8010E94D301B5019F
:102F6000A40183E190E0801B910B0E94D301ED81CD
:102F7000FE81E05AFF4FFE83ED830F5F1F4FE03C61
:102F8000F34009F47FCDBFCF80818A3008F4B1CF00
:102F90008A508083AECFAFE8EA2EA1E0FA2EA6ECED
:102FA000B1E0F70180E090819E3108F062C01082AC
:102FB0009D912081291708F490839081891708F446
:102FC000892F319660ED71E06A177B0761F78131D7
:102FD00008F458CD10E000E020E0C801B1010E94E3
:102FE000351CFB01EE0FFF1FEE0FFF1FEE56FF4FCC
:102FF00085919591A591B491492F50E070E060E0E2
:10300000762F652F542F44276A2B482B7F833091CE
:103010003801369FC0011124B92E359FC0011124FB
:10302000A92E349FA0011124952ED7018D917D01E9
:1030300090E0880F991F822E890E2D83BD81B815CF
:10304000D9F0CB2ED12C492D5A2D6B2D7F81C60165
:103050000A960E94D301492D5A2D6B2D7F8189E05C
:1030600090E08C199D090E94D301ED81EF5FED8303
:10307000E5CF9F5090839CCF005A1F4F2D81003C7D
:10308000F3E01F0709F0A9CF2A3008F0FBCC30E0AD
:103090003E832D8309E010E0021B130BC0908B01CF
:1030A000D0908C01E0908D01F0908E01B701A601C7
:1030B0008D819E810A960E94D301B701A601C801A5
:1030C0000E94D3016D817E816F5F7F4F7E836D8310
:1030D000015011096A3011F7D5CC1E821D8210E013
:1030E000812F0E9422076B017C01BC01A6018D810A
:1030F0009E810E94D301B701A60183E190E0AD81DA
:10310000BE818A1B9B0B0E94D301B701A6018D8152
:103110009E8101960E94D301B701A60182E190E051
:10312000ED81FE818E1B9F0B0E94D3011F5F2D81BD
:103130003E812E5F3F4F3E832D83153089F6A2CC12
:103140006AE070E07E836D8310E0812F0E94220789
:103150006B017C01BC01A6018D819E810E94D3017F
:10316000B701A60183E190E0AD81BE818A1B9B0B74
:103170000E94D301B701A6018D819E8101960E9414
:10318000D301B701A60182E190E0ED81FE818E1BA3
:103190009F0B0E94D3011F5F2D813E812E5F3F4F09
:1031A0003E832D83153089F66DCC9FE8C92E91E0C2
:1031B000D92EA6ECB1E0F601F12CE12C80818F3004
:1031C00008F05CC010828D919081981708F480837C
:1031D0008191E80EF11C31E0A03DB30779F710E0D2
:1031E00000E0812C61E1E616F10408F44BCCC80143
:1031F000B1010E94351CFB01EE0FFF1FEE0FFF1FF8
:10320000EE56FF4F4590559065907490652D70E097
:1032100090E080E0982F872F762F662786296429F3
:103220000E94B9052B013C01D6018D916D01B4E1DD
:103230008B9FC0011124B7010E94211CFB01319614
:10324000F695E795FE83ED83982C892D88192D81BD
:103250003E8182171306B8F4A92CB12CB301A20148
:10326000C5010A960E94D301B301A20189E090E052
:103270008A199B090E94D3019394E7CF8F508083D2
:10328000A2CF892CB4CF005A1F4F003C33E0130764
:10329000C1F769E0691508F4F5CB892D90E09E83AC
:1032A0008D8309E010E0081B190BC0908B01D090B2
:1032B0008C01E0908D01F0908E01B701A6018D8107
:1032C0009E810A960E94D301B701A601C8010E94FF
:1032D000D301AD81BE811196BE83AD83015011092A
:1032E000AA3019F7CFCB06EC11E01E821D82D12C3B
:1032F000C12CF80180819181890F9927991F4091F4
:103300003801489F9001499F300D1124C60165E0A6
:1033100070E00E94351CFB01EE0FFF1FEE0FFF1F38
:10332000EE56FF4F6591759185919491432F0E94C0
:10333000A3054B015C01F12CE12CB501A4018D81A9
:103340009E818E0D9F1D0E94D301FFEFEF1AFF0A91
:1033500023E0E216F10489F70E5F1F4F30E6C30E3B
:10336000D11C6D817E816C5F7F4F7E836D83643164
:10337000710509F0BECF86CBE0913901E03338F515
:10338000EE0F74E0E79FF0011124EE56FF4F859198
:103390009591A591B491C92ED12CF12CE12CFE2C44
:1033A000ED2CDC2CCC24EA2AC82A1E821D82B7010F
:1033B000A6018D819E810E94D3018D819E810196FF
:1033C0009E838D83449799F70E949D045BCB2FE3E6
:1033D000C22ED12CCE1AD10834E0CC0CDD1C3A958B
:1033E000E1F78C2D90E0B0E0A0E07C01DD24CC245E
:1033F0004427582F692F7A2FC42AD52AE62AF72A7C
:10340000C82AD92AEA2AFB2A1E821D82B701A601F0
:103410008D819E810E94D301AD81BE811196BE83B4
:10342000AD83549799F7D0CF8091DB018093390118
:103430008091DC01809338018091DD018093370118
:10344000882309F410CA809136018D3010F0109253
:103450003601E0913601F0E0EA5AFD4FE491E09345
:10346000C50101CA809136018D3108F00CCA8091E6
:10347000370180FF30C08091C40181112CC0809140
:10348000C5018F5F8093C501811125C00E94661B15
:1034900028E430E040E050E00E94BE1B862F877099
:1034A00080933501E62FF0E093E0F595E7959A9546
:1034B000E1F7FE83ED83E0933601EB5EFE4F9081F2
:1034C000909339010E94C805ED81FE81EA5AFD4FB3
:1034D000E491E093C501F0913601FF83FF2309F4E5
:1034E00067C0209139012D83622F70E090E080E069
:1034F0000E9470053F8131503F833E3008F0C3C9C0
:10350000E32FF0E0EA57F54E0C94491C941AAB1ADD
:10351000AE1AB11AB41AB71ABA1ABD1AC01AC31A17
:10352000C61AC91ACC1ACF1A80913501863028F4F0
:10353000833058F00E94200EA6C9863049F08730AB
:1035400009F0A1C90E945F0B9EC90E94D0119BC9BE
:103550000E94B40B98C90E945D0995C90E94C009D8
:1035600092C90E940E0A8FC90E94C90A8CC90E9482
:10357000F80789C90E94380886C90E946B0883C968
:103580000E94A40880C90E94DD087DC90E94EA0B40
:103590007AC90E94A30C77C90E94870D74C98D81D6
:1035A0000E94F8068091C4018F5F8093C4016BC9AB
:1035B000E0913501E830B0F7F0E0EF51F54E0C94B2
:1035C000491CE91AEC1AEF1AF21AF51AF81AFB1A42
:1035D000FB1A0E947C06E6CF0E94CC06E3CF0E9435
:1035E0007111E0CF0E94F510DDCF0E942110DACFDB
:1035F0000E94D30FD7CF0E948A0ED4CF1092C3015E
:1036000061E06093E6013FC91092C3013CC90E948A
:10361000AC03FDC880918D0290918E020E94EB1C3C
:1036200080918A0290918B0297FD03C060E00C9418
:10363000470408958F929F92AF92BF92CF92DF92EC
:10364000EF92FF92CF93DF93EC01688179818A81B9
:103650009B81611571058105910521F464E279ED85
:103660008BE597E02DE133EF41E050E00E94BE1B77
:1036700049015A019B01AC01A7EAB1E40E94DD1B9C
:103680006B017C01ACEEB4EFA50194010E94EB1B31
:10369000C60ED71EE81EF91EF7FE06C081E0C81A46
:1036A000D108E10880E8F80AC882D982EA82FB8260
:1036B000C701B6019F77DF91CF91FF90EF90DF9028
:1036C000CF90BF90AF909F908F9008958F929F92D0
:1036D000AF92BF92CF92DF92EF92FF9260913A0148
:1036E00070913B0180913C0190913D016115710504
:1036F0008105910521F464E279ED8BE597E02DE1F8
:1037000033EF41E050E00E94BE1B49015A019B018A
:10371000AC01A7EAB1E40E94DD1B6B017C01ACEEB9
:10372000B4EFA50194010E94EB1BC60ED71EE81E44
:10373000F91EF7FE06C081E0C81AD108E10880E84A
:10374000F80AC0923A01D0923B01E0923C01F0921B
:103750003D01C701B6019F77FF90EF90DF90CF90BA
:10376000BF90AF909F908F90089560933A017093AF
:103770003B0180933C0190933D010895052E97FBFA
:103780001EF400940E94D51B57FD07D00E94F01B29
:1037900007FC03D04EF40C94D51B50954095309502
:1037A00021953F4F4F4F5F4F0895909580957095AD
:1037B00061957F4F8F4F9F4F08950E94121CA59FC8
:1037C000900DB49F900DA49F800D911D112408951C
:1037D000B7FF0C94DD1B0E94DD1B821B930B089529
:1037E000A1E21A2EAA1BBB1BFD010DC0AA1FBB1F05
:1037F000EE1FFF1FA217B307E407F50720F0A21B77
:10380000B30BE40BF50B661F771F881F991F1A94E3
:1038100069F760957095809590959B01AC01BD010D
:10382000CF010895A29FB001B39FC001A39F700D67
:10383000811D1124911DB29F700D811D1124911DB8
:103840000895AA1BBB1B51E107C0AA1FBB1FA617E7
:10385000B70710F0A61BB70B881F991F5A95A9F739
:1038600080959095BC01CD01089597FB072E16F425
:10387000009407D077FD09D00E94211C07FC05D0D9
:103880003EF4909581959F4F0895709561957F4F77
:103890000895EE0FFF1F0590F491E02D09940F930A
:1038A0001F93CF93DF938230910510F482E090E074
:1038B000E0919C02F0919D0230E020E0B0E0A0E0B9
:1038C000309799F42115310509F44AC0281B390BAA
:1038D00024303105D8F58A819B816115710589F104
:1038E000FB0193838283FE0111C0408151810281DB
:1038F000138148175907E0F04817590799F41097B2
:1039000061F012960C93129713961C933296CF0186
:10391000DF91CF911F910F91089500939C02109316
:103920009D02F4CF2115310551F04217530738F0AD
:10393000A901DB019A01BD01DF01F801C1CFEF014F
:10394000F9CF90939D0280939C02CDCFFE01E20FB0
:10395000F31F819391932250310939832883D7CF64
:1039600020919A0230919B02232B41F42091400137
:103970003091410130939B0220939A0220913E01A5
:1039800030913F012115310541F42DB73EB74091EB
:10399000420150914301241B350BE0919A02F091B2
:1039A0009B02E217F307A0F42E1B3F0B28173907E1
:1039B00078F0AC014E5F5F4F2417350748F04E0F8B
:1039C0005F1F50939B0240939A02819391939FCFE4
:1039D000F0E0E0E09CCFCF93DF930097E9F0FC01AB
:1039E000329713821282A0919C02B0919D02ED0148
:1039F00030E020E01097A1F420813181820F931FE5
:103A000020919A0230919B022817390709F061C072
:103A1000F0939B02E0939A02DF91CF910895EA011F
:103A2000CE17DF07E8F54A815B819E0141155105FC
:103A3000B1F7E901FB83EA8349915991C40FD51F7E
:103A4000EC17FD0761F4808191810296840F951F28
:103A5000E90199838883828193819B838A83F0E043
:103A6000E0E012968D919C9113970097B9F52D91F6
:103A70003C911197CD010296820F931F20919A02DB
:103A800030919B022817390739F6309751F510927B
:103A90009D0210929C02B0939B02A0939A02BCCF0D
:103AA000D383C28340815181840F951FC817D907E2
:103AB00061F44E5F5F4F88819981480F591F518390
:103AC00040838A819B81938382832115310509F08C
:103AD000B0CFF0939D02E0939C029ECFFD01DC01EC
:103AE000C0CF13821282D7CFDC0101C06D93415049
:103AF0005040E0F7089511E0C0E6D1E004C0FE01B7
:103B00000E94491C2196C136D107C9F7F894FFCF0E
:103B1000030304040000FF0000FF00000000FF009A
:103B200000FFFF000F1414141414141414141414AC
:103B30001414141414141414141414141414141445
:103B40001414141414070201FF64010000000000A3
:103B50009E02800003030404C0C0C0C0C0A0A0A097
:103B60008080807070706060605050500000000075
:103B7000DA0342036F032704A0037E0392034F4B33
:043B8000000D0A002A
:107E0000112484B714BE81FFF0D085E080938100F7
:107E100082E08093C00088E18093C10086E0809377
:107E2000C20080E18093C4008EE0C9D0259A86E02C
:107E300020E33CEF91E0309385002093840096BBD3
:107E4000B09BFECF1D9AA8958150A9F7CC24DD24C4
:107E500088248394B5E0AB2EA1E19A2EF3E0BF2EE7
:107E6000A2D0813461F49FD0082FAFD0023811F036
:107E7000013811F484E001C083E08DD089C08234E0
:107E800011F484E103C0853419F485E0A6D080C0E4
:107E9000853579F488D0E82EFF2485D0082F10E0AE
:107EA000102F00270E291F29000F111F8ED06801E7
:107EB0006FC0863521F484E090D080E0DECF843638
:107EC00009F040C070D06FD0082F6DD080E0C81688
:107ED00080E7D80618F4F601B7BEE895C0E0D1E017
:107EE00062D089930C17E1F7F0E0CF16F0E7DF06D8
:107EF00018F0F601B7BEE89568D007B600FCFDCFD4
:107F0000A601A0E0B1E02C9130E011968C91119780
:107F100090E0982F8827822B932B1296FA010C0160
:107F200087BEE89511244E5F5F4FF1E0A038BF0790
:107F300051F7F601A7BEE89507B600FCFDCF97BE46
:107F4000E89526C08437B1F42ED02DD0F82E2BD052
:107F50003CD0F601EF2C8F010F5F1F4F84911BD097
:107F6000EA94F801C1F70894C11CD11CFA94CF0C13
:107F7000D11C0EC0853739F428D08EE10CD085E9AC
:107F80000AD08FE07ACF813511F488E018D01DD067
:107F900080E101D065CF982F8091C00085FFFCCF94
:107FA0009093C60008958091C00087FFFCCF809118
:107FB000C00084FD01C0A8958091C6000895E0E648
:107FC000F0E098E1908380830895EDDF803219F02E
:107FD00088E0F5DFFFCF84E1DECF1F93182FE3DFCA
:107FE0001150E9F7F2DF1F91089580E0E8DFEE27F6
:047FF000FF270994CA
:027FFE00040479
:00000001FF
